{
  "_format": "hh-sol-artifact-1",
  "contractName": "Calculator",
  "sourceName": "contracts/Calculator.sol",
  "abi": [
    {
      "inputs": [
        {
          "internalType": "uint256",
          "name": "nb1",
          "type": "uint256"
        },
        {
          "internalType": "uint256",
          "name": "nb2",
          "type": "uint256"
        }
      ],
      "name": "add",
      "outputs": [
        {
          "internalType": "uint256",
          "name": "",
          "type": "uint256"
        }
      ],
      "stateMutability": "pure",
      "type": "function"
    },
    {
      "inputs": [
        {
          "internalType": "uint256",
          "name": "nb1",
          "type": "uint256"
        },
        {
          "internalType": "uint256",
          "name": "nb2",
          "type": "uint256"
        }
      ],
      "name": "div",
      "outputs": [
        {
          "internalType": "uint256",
          "name": "",
          "type": "uint256"
        }
      ],
      "stateMutability": "pure",
      "type": "function"
    },
    {
      "inputs": [
        {
          "internalType": "uint256",
          "name": "nb1",
          "type": "uint256"
        },
        {
          "internalType": "uint256",
          "name": "nb2",
          "type": "uint256"
        }
      ],
      "name": "modulo",
      "outputs": [
        {
          "internalType": "uint256",
          "name": "",
          "type": "uint256"
        }
      ],
      "stateMutability": "pure",
      "type": "function"
    },
    {
      "inputs": [
        {
          "internalType": "uint256",
          "name": "nb1",
          "type": "uint256"
        },
        {
          "internalType": "uint256",
          "name": "nb2",
          "type": "uint256"
        }
      ],
      "name": "mul",
      "outputs": [
        {
          "internalType": "uint256",
          "name": "",
          "type": "uint256"
        }
      ],
      "stateMutability": "pure",
      "type": "function"
    },
    {
      "inputs": [
        {
          "internalType": "uint256",
          "name": "nb1",
          "type": "uint256"
        },
        {
          "internalType": "uint256",
          "name": "nb2",
          "type": "uint256"
        }
      ],
      "name": "sub",
      "outputs": [
        {
          "internalType": "uint256",
          "name": "",
          "type": "uint256"
        }
      ],
      "stateMutability": "pure",
      "type": "function"
    }
  ],
  "bytecode": "0x608060405234801561001057600080fd5b5061050a806100206000396000f3fe608060405234801561001057600080fd5b50600436106100575760003560e01c8063771602f71461005c578063a391c15b1461008c578063b67d77c5146100bc578063baaf073d146100ec578063c8a4ac9c1461011c575b600080fd5b61007660048036038101906100719190610212565b61014c565b60405161008391906102e3565b60405180910390f35b6100a660048036038101906100a19190610212565b610162565b6040516100b391906102e3565b60405180910390f35b6100d660048036038101906100d19190610212565b6101bb565b6040516100e391906102e3565b60405180910390f35b61010660048036038101906101019190610212565b6101d1565b60405161011391906102e3565b60405180910390f35b61013660048036038101906101319190610212565b6101e7565b60405161014391906102e3565b60405180910390f35b6000818361015a919061030f565b905092915050565b6000808214156101a7576040517f08c379a000000000000000000000000000000000000000000000000000000000815260040161019e906102c3565b60405180910390fd5b81836101b39190610365565b905092915050565b600081836101c991906103f0565b905092915050565b600081836101df919061042e565b905092915050565b600081836101f59190610396565b905092915050565b60008135905061020c816104bd565b92915050565b6000806040838503121561022557600080fd5b6000610233858286016101fd565b9250506020610244858286016101fd565b9150509250929050565b600061025b6021836102fe565b91507f43616c63756c61746f722063616e206e6f74206469766964652064696769742060008301527f30000000000000000000000000000000000000000000000000000000000000006020830152604082019050919050565b6102bd81610424565b82525050565b600060208201905081810360008301526102dc8161024e565b9050919050565b60006020820190506102f860008301846102b4565b92915050565b600082825260208201905092915050565b600061031a82610424565b915061032583610424565b9250827fffffffffffffffffffffffffffffffffffffffffffffffffffffffffffffffff0382111561035a5761035961045f565b5b828201905092915050565b600061037082610424565b915061037b83610424565b92508261038b5761038a61048e565b5b828204905092915050565b60006103a182610424565b91506103ac83610424565b9250817fffffffffffffffffffffffffffffffffffffffffffffffffffffffffffffffff04831182151516156103e5576103e461045f565b5b828202905092915050565b60006103fb82610424565b915061040683610424565b9250828210156104195761041861045f565b5b828203905092915050565b6000819050919050565b600061043982610424565b915061044483610424565b9250826104545761045361048e565b5b828206905092915050565b7f4e487b7100000000000000000000000000000000000000000000000000000000600052601160045260246000fd5b7f4e487b7100000000000000000000000000000000000000000000000000000000600052601260045260246000fd5b6104c681610424565b81146104d157600080fd5b5056fea2646970667358221220478713053c4550cbbc1b67ca72315ff836cc2bf2d0acde20b9def130666e83dc64736f6c63430008000033",
  "linkReferences": {},
  "deployedLinkReferences": {}
}